:100000000C9465000C948D000C948D000C948D0064
:100010000C948D000C948D000C948D000C948D002C
:100020000C948D000C948D000C9408160C947F1683
:100030000C94BD150C946A150C948D000C948D00D5
:100040000C94C8140C948D000C9438150C94121553
:100050000C948D000C948D000C948D000C948D00EC
:100060000C948D000C948D007C3C3E5E2B3D3F2F0C
:100070005B5D3B2C2A225C0000000000250028006C
:100080002B0000000008000201000003040700002C
:1000900000000000000000000000240027002A00EB
:1000A000010204081020408001020408102001020F
:1000B00004081020040404040404040402020202DC
:1000C0000202030303030303D11611241FBECFEF63
:1000D000D8E0DEBFCDBF12E0A0E0B1E0EEEBF6E38A
:1000E00002C005900D92A835B107D9F726E0A8E522
:1000F000B2E001C01D92A638B207E1F710E0C5E6F4
:10010000D0E004C02197FE010E94F119C436D10746
:10011000C9F70E9428170C945D1B0C940000E09115
:100120008006F0918106309721F081E09581911150
:1001300001C080E00895CF93DF93FC018281938119
:1001400090936A068093690684819581A681B78120
:1001500080936B0690936C06A0936D06B0936E0629
:1001600080859185A285B38580936F0690937006F4
:10017000A0937106B0937206DF011C96CF014996D9
:10018000C3E7D6E02D912993A817B907D9F7818D38
:10019000928D909381068093800687E696E0DF91AA
:1001A000CF91089590E0FC01EE57FF4F2491FC01A0
:1001B000E056FF4F3491FC01EC54FF4FE491EE23E5
:1001C000C9F0222339F0233001F1A8F4213019F1CC
:1001D000223029F1F0E0EE0FFF1FE858FF4FA59104
:1001E000B4918FB7F894EC91611126C030953E23FD
:1001F0003C938FBF08952730A9F02830C9F02430F0
:1002000049F7809180008F7D03C0809180008F77B7
:1002100080938000DFCF84B58F7784BDDBCF84B53A
:100220008F7DFBCF8091B0008F778093B000D2CFCD
:100230008091B0008F7DF9CF3E2BDACFCF93DF9343
:1002400090E0FC01E056FF4F24918C549F4FFC013D
:1002500084918823D1F090E0880F991FFC01EA5621
:10026000FF4FA591B491FC01E858FF4FC591D4917F
:1002700061110EC09FB7F8948C91E22FE0958E2308
:100280008C932881E223E8839FBFDF91CF9108956B
:100290008FB7F894EC91E22BEC938FBFF6CF3FB77A
:1002A000F89480916E0390916F03A0917003B091C8
:1002B000710326B5A89B05C02F3F19F00196A11D1B
:1002C000B11D3FBFBA2FA92F982F8827BC01CD01A0
:1002D000620F711D811D911D42E0660F771F881FFF
:1002E000991F4A95D1F708958F929F92AF92BF922E
:1002F000CF92DF92EF92FF924B015C010E944F017F
:100300006B017C010E944F016C197D098E099F09C8
:10031000683E734081059105A8F321E0821A910897
:10032000A108B10888EEC80E83E0D81EE11CF11CBC
:1003300081149104A104B10429F7FF90EF90DF909C
:10034000CF90BF90AF909F908F9008952FB7F89463
:1003500060916A0370916B0380916C0390916D03BF
:100360002FBF0895AF92BF92CF92DF92EF92FF928C
:100370000F931F93CF93DF936C017B018B01040FCD
:10038000151FEB015E01AE18BF08C017D10759F069
:100390006991D601ED91FC910190F081E02DC601AB
:1003A0000995892B79F7C501DF91CF911F910F91A5
:1003B000FF90EF90DF90CF90BF90AF900895FC0139
:1003C000538D448D252F30E0842F90E0821B930BBA
:1003D000541710F0CF96089501970895FC01918D60
:1003E000828D981761F0A28DAE0FBF2FB11D5D9663
:1003F0008C91928D9F5F9F73928F90E008958FEF05
:100400009FEF0895FC01918D828D981731F0828DB8
:10041000E80FF11D858D90E008958FEF9FEF08950F
:10042000FC01918D228D892F90E0805C9F4F821B73
:1004300091098F73992708958FE795E00E94100224
:1004400021E0892B09F420E0822F089580E090E0DC
:10045000892B29F00E941C0281110C940000089540
:10046000FC01A48DA80FB92FB11DA35ABF4F2C9129
:10047000848D90E001968F739927848FA689B78920
:100480002C93A089B1898C91837080648C93938D17
:10049000848D981306C00288F389E02D80818F7DBA
:1004A00080830895EF92FF920F931F93CF93DF9372
:1004B000EC0181E0888F9B8D8C8D98131AC0E889A0
:1004C000F989808185FF15C09FB7F894EE89FF896F
:1004D0006083E889F98980818370806480839FBF0D
:1004E00081E090E0DF91CF911F910F91FF90EF900D
:1004F0000895F62E0B8D10E00F5F1F4F0F7311271D
:10050000E02E8C8D8E110CC00FB607FCFACFE88957
:10051000F989808185FFF5CFCE010E943002F1CFAD
:10052000EB8DEC0FFD2FF11DE35AFF4FF0829FB7CB
:10053000F8940B8FEA89FB8980818062CFCFCF93BB
:10054000DF93EC01888D8823B9F0AA89BB89E889FB
:10055000F9898C9185FD03C0808186FD0DC00FB6A1
:1005600007FCF7CF8C9185FFF2CF808185FFEDCF1F
:10057000CE010E943002E9CFDF91CF9108958FB76D
:10058000F89480915F038FBF089561E0FC0184813E
:100590000E94D20080915E03811110925E03089543
:1005A0008EBD00000DB407FEFDCF8EB508958FEF10
:1005B0000C94D0020F931F93CF93DF93EC010E9412
:1005C000A6018B010E94D7028F3F69F00E94A6010D
:1005D000601B710B6C177D07A8F380E0DF91CF9152
:1005E0001F910F91089581E0F9CF8CBD9DBD0895B5
:1005F000CF93DF93EC0180915E03811109C081E00C
:1006000080935E0380911C0690911D060E94F50266
:1006100060E08C81DF91CF910C94D2008F929F92F9
:10062000AF92BF92FF920F931F93CF93DF93EC0192
:10063000F62E49015A018E81882389F08F81988591
:100640009C012F5F3F4F38872F838230924018F4F0
:100650000E94D702F3CFCE010E94C5021E82CE01B6
:100660000E94F8028CE291E00E94DA028F2D8064F1
:100670000E94D00208E110E0D501C401002E04C0A0
:10068000B695A795979587950A94D2F70E94D002C0
:1006900008501109083F8FEF180771F785E9FF200F
:1006A00021F028E087E8F2128FEF0E94D00210E0DC
:1006B0000E94D7028A8787FF04C01F3F11F01F5F87
:1006C000F7CFDF91CF911F910F91FF90BF90AF9027
:1006D0009F908F900895AF92BF92CF92DF92EF924A
:1006E000FF920F931F93CF93DF93EC016901C80131
:1006F000820F931F8130924050F58E81882379F0CC
:1007000088819981AA81BB8184179507A607B707BD
:1007100031F48F819885C816D90608F042C0488305
:1007200059836A837B838B85833039F089E0440F5A
:10073000551F661F771F8A95D1F79A01AB0161E1BA
:10074000CE010E940E03882389F083E08D83CE01C1
:100750000E94C50280E0DF91CF911F910F91FF9021
:10076000EF90DF90CF90BF90AF9008950E94A601C8
:100770005B010E94D7028A878F3F69F40E94A6011D
:100780006A197B096D327140A0F38FE08D83CE0131
:100790000E94C502DCCF8E3F89F418861F8281E05B
:1007A0008E838F8198858C159D0550F40E94D70209
:1007B0008F819885019698878F83F3CF8DE0E6CF60
:1007C0006701E00EF11E0E94D702F60181936F01CE
:1007D000EE15FF05C1F78F819885080F191F18873F
:1007E0000F838985882319F001151240A0F08E81AE
:1007F000882389F08F8198859C012F5F3F4F388730
:100800002F838230924018F40E94D702F3CFCE019A
:100810000E94C5021E8281E09ECFCF92DF92EF92AE
:10082000FF920F93CF93DF93EC01690182E14115B1
:1008300051056105710599F08B85833039F089E0A8
:10084000440F551F661F771F8A95D1F79A01AB0198
:1008500068E1CE010E940E03882319F084E08D83A5
:100860002DC08EEF0E94D00276018EEFD81AF701CC
:1008700081917F010E94D002EC14FD04C1F78FEF3B
:100880000E94D0028FEF0E94D0020E94D7028A8776
:100890008F71853071F4011116C0CE010E94C5021E
:1008A00081E0DF91CF910F91FF90EF90DF90CF909B
:1008B000089581E18D83CE010E94C502CE010E9480
:1008C000C50280E0EECF88E592E00E94DA02811155
:1008D00002C085E1C4CF20E030E0A9016DE0CE0187
:1008E0000E940E03882311F084E1B9CF0E94D70241
:1008F0008111FACFD2CF0F934091610350916203DF
:1009000060916303709164034115510561057105A0
:1009100099F0082F2DE733E080917D0590917E05B9
:100920000E940D04882349F0109261031092620323
:10093000109263031092640381E00F9108950F9366
:10094000CF93C82F80916003811105C0C1E08C2F27
:10095000CF910F9108954091000150910101609154
:100960000201709103010C2F2DE733E080917D058A
:1009700090917E050E940D04811102C0C0E0E7CF76
:10098000CC2321F381E00E947B048823B9F31092E9
:100990006003DDCF8F929F92AF92BF92EF92FF9252
:1009A0000F931F93CF934B015C01C42F80910001E3
:1009B00090910101A0910201B09103018815990560
:1009C000AA05BB0551F181E00E949F0481110BC073
:1009D00080E0CF911F910F91FF90EF90BF90AF906B
:1009E0009F908F9008958DE7E82E83E0F82E00E029
:1009F00012E030E020E0B501A40180917D059091E6
:100A00007E050E946B03882319F380920001909267
:100A10000101A0920201B0920301409160034C2BAE
:100A20004093600381E0D5CF8F929F92AF92BF92A7
:100A3000CF92DF92EF92FF92CF932EE136E0309388
:100A40007E0520937D05882309F46DC040E060E0B9
:100A500070E0CB010E94CA0481110BC080E0CF91ED
:100A6000FF90EF90DF90CF90BF90AF909F908F90CE
:100A7000089580913B058F7789F780914705909184
:100A80004805A0914905B0914A0584369105A10514
:100A9000B10520F3C0904305D0904405E090450592
:100AA000F0904605C114D104E104F104B9F240E02C
:100AB000C701B6010E94CA04882381F2809188038D
:100AC000909189038115924049F6A0918D03AA2344
:100AD00029F260918B0370918C036115710509F403
:100AE000BDCF20918A03222309F4B8CFA0933C06FE
:100AF00020932E0690E080E030E0E1E0F0E0C82FA7
:100B0000AF01082E02C0440F551F0A94E2F72417C4
:100B1000350769F041E0480F01968930910579F772
:100B2000409337069BCFC12CD12C7601C0CF809348
:100B30003706209193033091940350E040E0211553
:100B4000310541F42091A1033091A2034091A30308
:100B50005091A40320932F06309330064093310622
:100B60005093320646015701860E971EA11CB11CF8
:100B700080923D0690923E06A0923F06B0924006BB
:100B8000E0918E03F0918F03F0934306E0934206C9
:100B9000B0E00E94E619DC01CB01880D991DAA1D69
:100BA000BB1D8093440690934506A0934606B093E0
:100BB000470625E0EE0FFF1F2A95E1F7E150FE4FB3
:100BC000EF2FFF27E6958E0F9F1FA11DB11D80936C
:100BD000380690933906A0933A06B0933B0680906E
:100BE000900390909103B12CA12C8114910441F4B5
:100BF00080909D0390909E03A0909F03B090A003CF
:100C0000C81AD90AEA0AFB0AC80CD91CEA1CFB1C40
:100C100004C0F694E794D794C794CA95D2F7C092CB
:100C20003306D0923406E0923506F092360685EF10
:100C3000C8168FE0D806E104F10428F48CE0809314
:100C4000410681E00CCF80E125EFC2162FEFD206DE
:100C5000E104F104A0F38091A9039091AA03A0916B
:100C6000AB03B091AC038093440690934506A093E8
:100C70004606B093470680E2E2CFCF93DF93EC01C4
:100C80006E857F858889998941E00E94CA048823FE
:100C900051F08A8920E2829FC001112483589C4F21
:100CA000DF91CF91089590E080E0FACF4F925F926C
:100CB0006F927F928F929F92AF92BF92CF92DF926C
:100CC000EF92FF920F931F93CF93DF93EC0142308B
:100CD00051056105710590F480E0DF91CF911F917E
:100CE0000F91FF90EF90DF90CF90BF90AF909F90CB
:100CF0008F907F906F905F904F90089589859A852F
:100D0000AB85BC850196A11DB11D84179507A6076B
:100D1000B70710F3CB88DC88ED88FE888F89803197
:100D200009F042C0BB27A72F962F852F48015901F4
:100D30002A013B01C80ED91EEA1EFB1E809100014C
:100D400090910101A0910201B0910301C816D9064A
:100D5000EA06FB0699F58F898031C1F5B301A2013E
:100D6000552766277727440F551F43585C4FFA01D4
:100D700091828082809160038160809360038A8980
:100D8000823080F08D819E81AF81B8858C0D9D1D54
:100D9000AE1DBF1D8093610390936203A093630314
:100DA000B093640381E099CFDB01CA01E7E0B69517
:100DB000A79597958795EA95D1F7B8CF40E0C701F9
:100DC000B6010E94CA048111C6CF86CFB301A20129
:100DD0004F77552766277727440F551F440F551F18
:100DE00043585C4FFA0180829182A282B382C2CFC3
:100DF0008F929F92AF92BF92CF92DF92EF92FF922B
:100E00000F931F93CF93DF93FC0181859285A38578
:100E1000B4850196A11DB11D84179507A607B707D4
:100E200070F480E0DF91CF911F910F91FF90EF90D0
:100E3000DF90CF90BF90AF909F908F900895838860
:100E40009488A588B6888789803189F5BB27A72F24
:100E5000962F852FE9016A017B018F01BC01CD012D
:100E6000680D791D8A1D9B1D8090000190900101E5
:100E7000A0900201B090030186169706A806B90655
:100E800001F5F8018789803111F5DD24EE24FF2476
:100E9000F601EE0FFF1FE358FC4F80819181B0E017
:100EA000A0E088839983AA83BB8381E0BBCFDB0169
:100EB000CA01C7E0B695A79597958795CA95D1F7CA
:100EC000C9CF40E00E94CA048111DBCFAACFE894C9
:100ED000C7F8DD24EE24FF24F601EE0FFF1FEE0F0E
:100EE000FF1FE358FC4F80819181A281B381BF70C5
:100EF000D8CF4F925F926F927F92AF92BF92CF9274
:100F0000DF92EF92FF920F931F93CF93DF9300D066
:100F100000D0CDB7DEB78C0149835A836B837C83C5
:100F20005901C12CD12C7601412C82E0582E612C24
:100F3000712C49815A816B817C819E012F5F3F4FCB
:100F4000C8010E94F806882339F1F8018585A301BC
:100F5000920104C0220F331F441F551F8A95D2F7F8
:100F6000DA01C901C80ED91EEA1EFB1E49815A8149
:100F70006B817C818789803111F188EF9FEFAFEF22
:100F8000BFE0481759076A077B0798F2F501C0824E
:100F9000D182E282F38281E00F900F900F900F9048
:100FA000DF91CF911F910F91FF90EF90DF90CF9045
:100FB000BF90AF907F906F905F904F90089588EFB3
:100FC0009FEFA0E0B0E0DDCFCF93DF93FC01258160
:100FD000222321F080E0DF91CF910895EC018091F0
:100FE0004106803159F582E08583178A108E118E73
:100FF000128E8091420690914306B0E0A0E025E079
:10100000880F991FAA1FBB1F2A95D1F7838B948B3A
:10101000A58BB68B8AE296E09C8F8B8F81E08C83C8
:101020001E821F82188619861A861B861C861D86BC
:101030001E861F86188A198A1A8ACDCF803251F6E9
:1010400083E08583409144065091450660914606B1
:1010500070914706478B508F618F728F9F012D5E75
:101060003F4F8AE296E00E9479078111D3CFB2CF39
:101070008F929F92AF92BF92CF92DF92EF92FF92A8
:101080000F931F93CF93DF93EC018D8181110EC0DD
:1010900080E0DF91CF911F910F91FF90EF90DF9053
:1010A000CF90BF90AF909F908F9008950B891C892F
:1010B0002D893E89041715072607370748F34A018B
:1010C0005B01823031F48A869B86AC86BD8681E0E6
:1010D000E0CF81149104A104B10449F41E821F825F
:1010E000188619861A861B861C861D86F0CF0A85EF
:1010F0001B852C853D85EB8DFC8D858590E00996C3
:10110000B901A8014150510961097109082E04C0B3
:1011100076956795579547950A94D2F775016401BE
:10112000E1E0CE1AD108E108F10804C0F694E79492
:10113000D794C7948A95D2F7C416D506E606F70663
:1011400020F0012B022B032B11F58F89988DA98D8F
:10115000BA8D8E839F83A887B9878E010A5F1F4F40
:10116000C114D104E104F10409F4ADCF4E815F81D3
:101170006885798598018B8D9C8D0E94F80691E099
:10118000C91AD108E108F1088111EACF81CFC41A48
:10119000D50AE60AF70AE1CF209180063091810650
:1011A0002115310541F0AB01BC01C9010E9438088D
:1011B00091E0811101C090E0892F08953F924F92F4
:1011C0005F926F927F928F929F92AF92BF92CF92D7
:1011D000DF92EF92FF920F931F93CF93DF93CDB7E0
:1011E000DEB72C970FB6F894DEBF0FBECDBF5C0103
:1011F000DC015B968D909C905C9716964D905D906F
:101200006D907C901997411451046104710409F4A4
:1012100068C0BFEF4B1A5B0A6B0A7B0A312CF401E2
:1012200081859285A385B4859C01AD012F5F3F4FD9
:101230004F4F5F4F29873A874B875C877301620165
:101240001D821E821F821886F40181859285A385E6
:10125000B4852D813E814F815885281739074A076B
:101260005B0708F056C089859A85AB85BC858C15CF
:101270009D05AE05BF0550F482E0C82ED12CE12CAF
:10128000F12C92E0492E512C612C712C9E012F5F84
:101290003F4FB701A601C4010E94F8068823C9F197
:1012A00089819A81AB81BC81892B8A2B8B2B09F197
:1012B000260137019FEF491A590A690A790A2D81D7
:1012C0003E814F8158852F5F3F4F4F4F5F4F2D839A
:1012D0003E834F8358873FEFC31AD30AE30AF30ACA
:1012E000B3CFF40140805180628073803324339403
:1012F00096CFC414D504E604F70409F70FEF1FEFE7
:101300002FEF3FE0B701A601C4010E9456068111EC
:1013100019C080E02C960FB6F894DEBF0FBECDBF8B
:10132000DF91CF911F910F91FF90EF90DF90CF90C1
:10133000BF90AF909F908F907F906F905F904F90F5
:101340003F900895D50116964D915D916D917C91D8
:101350001997411551056105710539F0970186010D
:10136000C4010E9456068823A1F2D5011696CD929B
:10137000DD92ED92FC921997332051F0D701C6010E
:101380000196A11DB11DF40180839183A283B383D3
:10139000F5018789908DA18DB28D892B8A2B8B2B9E
:1013A00039F48481C78AD08EE18EF28E806884837E
:1013B000F50184818062848381E0ACCF2F923F92DB
:1013C0004F925F926F927F928F929F92AF92BF9255
:1013D000CF92DF92EF92FF920F931F93CF93DF9301
:1013E000EC015B012A018D81811115C08FEF9FEF08
:1013F000DF91CF911F910F91FF90EF90DF90CF90F1
:10140000BF90AF909F908F907F906F905F904F9024
:101410003F902F9008958C8180FFE8CF0B891C8925
:101420002D893E894A855B856C857D85C201B0E04A
:10143000A0E068017901C41AD50AE60AF70AC816BD
:10144000D906EA06FB0618F42801441A550A420197
:101450001E0126E0220E311C8114910409F4B3C050
:101460004A855B856C857D856A0181E0D8228B8DFC
:101470009C8D8A019B01E9E0369527951795079584
:10148000EA95D1F7ED81E230E1F5FC01628D738DD3
:10149000848D958D600F711F821F931F612C22E038
:1014A000722E6C187D088614970408F434012C8180
:1014B00026FD04C06114F2E07F0671F40091000182
:1014C00010910101209102013091030106171707C5
:1014D0002807390709F053C040E00E94CA04882356
:1014E00009F484CFC60183589C4FD5019C01260D79
:1014F000371DFC012E173F0709F460C041914D9341
:10150000F9CFFC0174807A947022C114D10471F473
:1015100071100CC0452B462B472B39F58F89988DC0
:10152000A98DBA8D8E839F83A887B987EB8DFC8D9B
:101530006E817F8188859985625071098109910941
:10154000258504C0660F771F881F991F2A95D2F73B
:101550000685178520893189600F711F821F931FAF
:10156000670D711D811D911D99CF4E815F81688529
:10157000798591010E94F8068111D8CF37CF750186
:1015800083019601AB01BC0180917D0590917E05A0
:101590000E946B03882309F429CFA60CB71C8A8507
:1015A0009B85AC85BD85860D971DA11DB11D8A87C4
:1015B0009B87AC87BD87861897084ECF281B390BB1
:1015C000A20EB31EECCFC20113CF1F93CF93DF93B4
:1015D000FC012581222371F1162FEC01848187FF04
:1015E0001EC0CF010E943D06FC01892B19F18D819F
:1015F000823040F48B899C89AD89BE89848F958F18
:10160000A68FB78F8F89988D938F828F8F89988DB2
:10161000A98DBA8DB58BA48B8C818F778C8311119A
:1016200003C08C818F7E8C83812FDF91CF911F919E
:101630000C949F0480E0DF91CF911F910895FF9259
:101640000F931F93CF93DF93EC018D81813041F095
:1016500090E080E0DF91CF911F910F91FF9008956E
:101660008C8181FFF5CF82FD1BC000917D0510911B
:101670007E05C8010E94F8020E94D702F82EC80118
:101680000E94C5028FEFF812E3CF8C8185FF1BC04B
:1016900060E0CE010E94E50A8C818F7D8C83D8CFDB
:1016A0004B895C896D897E898A859B85AC85BD85E2
:1016B00084179507A607B707C1F2CE010E94380824
:1016C0008111D3CFC5CF40916103509162036091E6
:1016D000630370916403452B462B472B21F080E078
:1016E0000E947B04B5CF80618C832A853B85317055
:1016F00080E092E0821B930BADCFCF93DF93EC01A0
:1017000061E00E94E50A882311F01D8281E0DF91EB
:10171000CF910895CF92DF92EF92FF921F93CF93D4
:10172000DF9380914D06882321F088E496E00E94A3
:101730007D0B109229061092270610922406109213
:10174000230684E0809322060E94A601EB0161E05B
:10175000809122060E941E0161E0809122060E9473
:10176000D2001FB7F89480917C03811127C0EEEB63
:10177000F0E08491EAEAF0E09491E82FF0E0EE0FD7
:10178000FF1FEA56FF4FA591B491EC91E92321F494
:1017900061E08AE00E94D20061E08AE00E941E01BE
:1017A0008CB580618CBD8CB580648CBD61E08DE0B2
:1017B0000E941E0161E08BE00E941E0180917C036B
:1017C0008F5F80937C031FBF82E580931C0610927D
:1017D0001D0680911C0690911D060E94F5021AE0DC
:1017E0008FEF0E94D0021150D9F78EE196E00E944F
:1017F000F80220E030E0A90160E08EE196E00E946E
:101800000E03182F80932806813081F00E94A601D4
:101810006C1B7D0B613D774060F381E08093230674
:101820008EE196E00E94C50290E078C02AEA31E09D
:1018300040E050E068E08EE196E00E940E0382FFF7
:101840002AC01093290680912906C12CD12C76013B
:10185000823029F4C12CD12CE12C80E4F82E20E038
:1018600030E0A90167E38EE196E00E940E03A70134
:10187000960169E28EE196E00E940E0380932806AD
:101880008823C1F00E94A6016C1B7D0B613D77404F
:1018900030F388E0C3CF14E00E94D702809328067B
:1018A0001150D1F78A3A11F082E0B8CF82E08093EC
:1018B0002906C9CF809129068230D1F420E030E09A
:1018C000A9016AE38EE196E00E940E03882311F0DD
:1018D00086E0A4CF0E94D702807C803C19F483E08C
:1018E000809329060E94D7020E94D7020E94D70245
:1018F0008EE196E00E94C50280E580931C0610925E
:101900001D0681E00E941405882389F088E496E092
:101910000E94E40791E0882309F486CF892FDF91A4
:10192000CF911F91FF90EF90DF90CF90089580E0CE
:101930000E941405882309F477CFE8CF2F923F92B5
:101940004F925F926F927F928F929F92AF92BF92CF
:10195000CF92DF92EF92FF920F931F93CF93DF937B
:1019600000D000D01F92CDB7DEB77C015B01342ED2
:101970005D83DC0115968C911597813009F0CEC0FE
:1019800014962C9021FECAC022FCB4C0C32CDD806A
:1019900022947FE027222094B22DB1702B2ED70104
:1019A0001A964D915D916D917C911D97C114D10452
:1019B00009F428C15B968D919C915C97FC01748021
:1019C0007A948A019B0169E03695279517950795CA
:1019D0006A95D1F770228A011170711020C001152B
:1019E0001105E9F416964D915D916D917C911997D1
:1019F000411551056105710509F099C057968D9102
:101A00009D910D90BC91A02D0097A105B10509F005
:101A1000B0C0C7010E94DE08882309F47FC080E0BF
:101A200092E0801B910B46018C159D0508F44C013A
:101A3000D7015B964D915C915C9716968D919D9127
:101A40000D90BC91A02D0297A109B109FA0125853D
:101A500004C0880F991FAA1FBB1F2A95D2F746857D
:101A6000578560897189840F951FA61FB71F9C0138
:101A7000AD01270D311D411D511D29013A01811470
:101A800032E0930609F07BC0809100019091010142
:101A9000A0910201B091030184159505A605B70533
:101AA00059F48FEF9FEFDC018093000190930101C7
:101AB000A0930201B0930301022D9501B301A2018D
:101AC00080917D0590917E050E940D04882331F15F
:101AD0009EEFB91AC818D908F70182859385A485A5
:101AE000B585880D991DA11DB11D82879387A48797
:101AF000B58755CFF70143895489658976898285F1
:101B00009385A485B585481759076A077B0709F4AB
:101B10003DCFC7010E943808811138CF81E090E0A5
:101B2000D70113969C938E93129780E007C09E0175
:101B30002F5F3F4F0E94F806811102C090E079C0EC
:101B400089819A81AB81BC81F701238D348DF901A4
:101B5000278948EF5FEF60E070E0203121F048EF27
:101B60005FEF6FEF7FE084179507A607B70708F0D0
:101B700050CFF70186839783A087B18750CF011597
:101B8000110599F5D7011A964D915D916D917C9152
:101B90001D9753968D919D910D90BC91A02D481746
:101BA00059076A077B0708F181E00E949F04882398
:101BB00009F4B4CF409200015092010160920201F9
:101BC0007092030180916003816080936003C8017B
:101BD00083589C4FD5019C01280D391DFC012E17FF
:101BE0003F0759F04D914193FACF41E0C301B20153
:101BF0000E94CA048111EBCF91CF281B390BA20E92
:101C0000B31E68CFF70183899489A589B6898417A3
:101C10009507A607B70738F48481438B548B658BEF
:101C2000768B80688483F701848183FD1AC0832DBD
:101C30009D810F900F900F900F900F90DF91CF919B
:101C40001F910F91FF90EF90DF90CF90BF90AF90DA
:101C50009F908F907F906F905F904F903F902F90CC
:101C6000089561E0C7010E94E50A882309F456CF70
:101C7000DECFCF93DF931F92CDB7DEB7698341E00C
:101C800050E0BE016F5F7F4F0E949E0C0F90DF916E
:101C9000CF910895FC01DB0112968D919C911397D1
:101CA000938382838FE591E09183808314968C9156
:101CB0001497848315968C911597858316964D916C
:101CC0005D916D917C9119974683578360877187E9
:101CD0001A964D915D916D917C911D974287538726
:101CE000648775871E964D915D916D917C9151979A
:101CF00046875787608B718B52968C915297828B57
:101D000053964D915D916D917C915697438B548B79
:101D1000658B768B57964D915D916D917C915A971D
:101D2000478B508F618F728F5B968D919C91948FB2
:101D3000838F0895FC01818D928D009719F061E0E9
:101D40000C94E50A0895DC015996ED91FC913097C9
:101D5000B9F083899489A589B689428553856485BC
:101D60007585841B950BA60BB70B811520E8920790
:101D7000A105B10538F08FEF9FE7A0E0B0E008952E
:101D800090E080E00895DC0159968D919C91009738
:101D900039F0DC01ED91FC910480F581E02D09948E
:101DA00090E080E00895CF93DF93EC01E98DFA8D08
:101DB000309749F481E090E09B838A8390E080E053
:101DC000DF91CF91089513821282898D9A8D0E949E
:101DD0009E0CE98DFA8D22813381232B59F7F0CFA8
:101DE000CF93DF931F92CDB7DEB76983DC01ED910E
:101DF000FC910280F381E02D41E050E0BE016F5F75
:101E00007F4F09950F90DF91CF910895CF93DF9386
:101E10001F92CDB7DEB741E050E0BE016F5F7F4F4C
:101E20000E94DE09019731F4898190E00F90DF91E3
:101E3000CF9108958FEF9FEFF9CFFC01818D928DA7
:101E4000009711F00C94060F8FEF9FEF08950F93FA
:101E50001F93CF93DF93EC01898D9A8D10E000E002
:101E6000009799F00E94060F8C010F3F100769F050
:101E7000898D9A8DFC014285538564857585415015
:101E80005109610971090E943808C801DF91CF9199
:101E90001F910F9108950895FC0101900020E9F72A
:101EA0003197AF01481B590BBC018FE795E00C94AB
:101EB000B201CF93DF930E944C0FEC0189E791E0D0
:101EC0000E944C0F8C0F9D1FDF91CF910895809140
:101ED000800690918106009761F00E947D0B8091B1
:101EE0008006909181060E94A21A1092810610929B
:101EF0008006089510927B0380916F008E7D809301
:101F00006F000E94670F8091800090E0880F892FFA
:101F1000881F990B0197C9F58091880090918900DD
:101F200050E040E020917703309178034217530747
:101F300060F570E060E097FD05C0BC012817390727
:101F400008F4B90170938B0060938A0070E060E040
:101F500097FD05C0B9018217930708F4BC0170937F
:101F6000890060938800225331096AE070E0E091B3
:101F70008400F0918500E217F307C8F361507109FE
:101F8000B1F74F5F5F4F0197CDCF809142018062E3
:101F900080934201109281001092800008958F92E8
:101FA0009F92AF92BF92CF92DF92EF92FF920F93E8
:101FB0001F93CF93DF9300D000D0CDB7DEB7FC01E5
:101FC0008581813091F080E00F900F900F900F90FD
:101FD000DF91CF911F910F91FF90EF90DF90CF9005
:101FE000BF90AF909F908F900895848181FFEBCF39
:101FF00083899489A589B689892B8A2B8B2B09F42F
:102000005FC07F0140E050E0BA01CF010E94380874
:102010008823C9F2F701C38CD48C8788908CA18C5B
:10202000B28C82E090E0A0E0B0E0F6018083918382
:10203000A283B3839E012F5F3F4FB501A401C60168
:102040000E94F806882309F4BECF00E010E0980152
:10205000B501A401C6010E945606882309F4B3CF36
:1020600089809A80AB80BC80F6018789803119F124
:1020700088EF9FEFAFEFBFE088169906AA06BB0670
:10208000C8F2F701178A108E118E128E138A148AE5
:10209000158A168A84818068848361E0C7010E9462
:1020A000E50A882309F48FCF40E050E0BA01C70168
:1020B0000E94380889CF88EF9FEFA0E0B0E0DCCF26
:1020C00081E082CFCF92DF92EF92FF921F93CF9366
:1020D000DF93EC0180E2689FF0011124E358FC4F8C
:1020E0009385917161F0842F827449F080E0DF91D3
:1020F000CF911F91FF90EF90DF90CF900895142F14
:102100006A8B8091000190910101A0910201B09130
:1021100003018E879F87A88BB98BC488D588F12C43
:10212000E12C7601DD24CC24CF8AD88EE98EFA8E7C
:10213000828D938DB0E0A0E0AC01BD014C295D29FA
:102140006E297F294F8B588F698F7A8F838588718D
:10215000B1F4848D958DA68DB78D8B8B9C8BAD8BBB
:10216000BE8B81E08D831F701C831E821F821886A8
:1021700019861A861B861C861D8681E0B8CF8031A1
:1021800009F0B4CF9E012D5E3F4F8B8D9C8D0E9438
:102190007907882309F4AACF84E0E4CF3F924F92D5
:1021A0005F926F927F928F929F92AF92BF92CF92E7
:1021B000DF92EF92FF920F931F93CF93DF93CDB7F0
:1021C000DEB72B970FB6F894DEBF0FBECDBF7C01F4
:1021D000DC0115968C91811115C0FE013196CE015E
:1021E0000C966F0130E23193E817F907E1F7DA0155
:1021F00030E087E09D91B92E992329F19E3239F480
:102200008A3011F480E0DAC038E08AE0F3CFE8E603
:10221000F0E04491442321F031969413FACFF2CFA9
:10222000831780F34FED490F4E3560F74FE9490FA3
:102230004A3118F440EEB42EB90EF601E30FF11D49
:10224000B0823F5FD7CF89818032E1F2322E8B019D
:10225000FB01838D948DD7015C969C938E935B9745
:1022600016821782108611861286138614861586AA
:10227000F80182859385A485B5854389548965894C
:10228000768984179507A607B70708F04DC025E0A3
:10229000B695A795979587952A95D1F7F82FFF7052
:1022A000AF2ED80115968C91823008F4ABCFC801BF
:1022B0000E94060F97FDA6CFF80182859385A4851D
:1022C000B5854F96A11DB11D82879387A487B587D9
:1022D000F0E2AF9EB001112463587C4F6115710587
:1022E00009F490CFDB018C91882341F0853E09F001
:1022F00058C0BB2029F0BB24B394BACFB1100EC094
:10230000F701A28A8091000190910101A091020140
:10231000B091030186879787A08BB18BDB018C91ED
:102320008111E9CFBB24B394832D8271823109F0EE
:1023300069CFBB2009F45AC0C7010E943D0600972F
:1023400009F460CF20E2FC0111922A95E9F72BE015
:10235000F601DC0101900D922A95E1F721E238E2C5
:10236000DC0151963C932E93509740E058E01F9625
:102370005C934E931E9753963C932E935297599687
:102380003C932E93589757965C934E93569781E0C3
:102390000E949F04882309F435CF432DF7016289F9
:1023A0000AC04BE050E0C6010E942B1B892B09F0AC
:1023B0005FCF432D6A2DC7010E9462102B960FB686
:1023C000F894DEBF0FBECDBFDF91CF911F910F916B
:1023D000FF90EF90DF90CF90BF90AF909F908F9045
:1023E0007F906F905F904F903F900895F8018581A6
:1023F000823009F407CFC8010E94DE08882309F45F
:1024000001CFD8015B96ED91FC915C9716968D906B
:102410009D90AD90BC901997B2E08B1A9108A108DD
:10242000B108858504C0880C991CAA1CBB1C8A9520
:10243000D2F786859785A089B189880E991EAA1E34
:10244000BB1E848124013501480E511C611C711C86
:1024500084149504A604B70409F1E1E04E1A51086A
:102460006108710881E00E949F04882309F4CACEA4
:10247000EDE7F3E011928DE795E08E179F07D1F716
:10248000409200015092010160920201709203019A
:1024900080916003816080936003DACFD8015B96FE
:1024A000ED91FC91258580E092E0A0E0B0E004C0D1
:1024B000880F991FAA1FBB1F2A95D2F7F8014389DD
:1024C000548965897689840F951FA61FB71F838B52
:1024D000948BA58BB68BD70152961C928DE793E017
:1024E00031CF5F926F927F928F929F92AF92BF9205
:1024F000CF92DF92EF92FF920F931F93CF93DF93D0
:10250000CDB7DEB7C754D1090FB6F894DEBF0FBE02
:10251000CDBF5C013B0119A218A28FE591E09F8F0E
:102520008E8F1BA21C821B829A8389831E8210E0DD
:1025300000E06E018EE1C80ED11C88E4E82E86E032
:10254000F82EF501E00FF11F80818F3211F40F5F3B
:102550001F4FD501A00FB11FFE01FB9690E080E058
:102560004F012D912F3249F0222339F00F5F1F4F79
:10257000019621938C309105A1F7880D991DFC01DE
:102580001082F501E00FF11F80818F3211F40F5F8F
:102590001F4FF501E00FF11F508041E0511040E066
:1025A00030E020E0B401C701F3010995811121C099
:1025B000F8E4EF16F6E0FF06C1F480E0C95BDF4FF8
:1025C0000FB6F894DEBF0FBECDBFDF91CF911F9144
:1025D0000F91FF90EF90DF90CF90BF90AF909F90C2
:1025E0008F907F906F905F900895C7010E947D0B40
:1025F000E4CF552091F021E0A401B701C6010E946B
:10260000CE10982E88E4E81686E0F80681F0C7011F
:102610000E947D0B911010C0D0CF98E4E91696E08F
:10262000F90619F0C7010E947D0B81E0C7CF992000
:1026300021F2FE0131967F019E2D8F2D7601C92E4C
:10264000D82E7FCF1F93CF93DF93CDB7DEB76D9793
:102650000FB6F894DEBF0FBECDBFAB011C821B824C
:102660002FE531E03A8329831E8221E0BC01CE01AF
:1026700001960E94CE1011E081110CC010E0812F54
:102680006D960FB6F894DEBF0FBECDBFDF91CF9130
:102690001F910895CE0101960E947D0BF0CFCF933C
:1026A000DF93CDB7DEB76D970FB6F894DEBF0FBEE0
:1026B000CDBF442399F1AB01BC011C821B828FE585
:1026C00091E09A8389831E8222E0CE0101960E94C6
:1026D000CE1081110EC090E081E0911101C080E028
:1026E0006D960FB6F894DEBF0FBECDBFDF91CF91D0
:1026F0000895CE0101960E94CF0F882361F3CE0189
:1027000001960E943D06009731F325EEFC012083DF
:102710001E8281E00E949F04982FDECF81E0E0CFEF
:10272000EF92FF920F931F93CF93DF93EC017B0106
:102730008A011B821A8288EE93E0A0E0B0E08C83CD
:102740009D83AE83BF838BE691E0998388838DE17F
:1027500090E00E94061A9A8F898F009779F02DE1F8
:10276000F701DC0101900D922A95E1F74CE050E071
:10277000B801CE010C960E944E1B188EDF91CF91AE
:102780001F910F91FF90EF9008952F923F924F92DB
:102790005F926F927F928F929F92AF92BF92CF92F1
:1027A000DF92EF92FF920F931F93CF93DF93CDB7FA
:1027B000DEB7C756D1090FB6F894DEBF0FBECDBF46
:1027C0005C013B01A6964FAFA69719A218A28FE510
:1027D00091E09F8F8E8F1BA21C821B829A8389831C
:1027E0001E824E018EE1880E911CC4010E94E407F6
:1027F00063018E010F5F1F4F240118016FE270E02B
:10280000C6010E94431B009709F459C0F6012081BC
:102810002F3271F4FFEFCF1ADF0A902F812F820140
:10282000492E582E942D852D2801092F182FE6CFDB
:102830008C198D3008F08CE0E82EF12CA701B60140
:10284000CE01885A9F4F0E944E1BE8E5F0E0EC0F46
:10285000FD1FEE0DFF1D1082C8010E947D0B21E0BF
:10286000AE01485A5F4FB201C8010E94CE108111DB
:1028700020C01EAE1DAE8FE591E09CAF8BAF2196C0
:102880001FAE2197A896EEADFFADA8976E0E7F1EE6
:10289000F3018081811120C0BE01655C7F4FC101C1
:1028A0000E944A0E4CE751E0B101C5010E9490130D
:1028B00031C0CE0CDF1CC2010E947D0BB3CFC6011C
:1028C00086199709A8969FAF8EAFA897B201CE013F
:1028D000CB960E944A0ED6CF19A218A28FE591E09E
:1028E0009F8F8E8F1BA221968FAD219781112DC0B6
:1028F000F5011382128288EE93E0A0E0B0E08483B9
:102900009583A683B7838BE691E091838083128EB3
:10291000118E1486C501C959DF4F0FB6F894DEBF7A
:102920000FBECDBFDF91CF911F910F91FF90EF9020
:10293000DF90CF90BF90AF909F908F907F906F90DF
:102940005F904F903F902F900895A6962FADA69739
:10295000A301BE01655C7F4FC4010E94CE10882395
:1029600039F2CE01CB960E947D0BA6968FADA6972D
:102970008670863039F449A95AA96BA97CA9C4018B
:102980000E943808B401C1010E944A0EA3018CCFF5
:102990001F920F920FB60F9211242F933F938F9394
:1029A0009F93AF93BF9380916A0390916B03A09123
:1029B0006C03B0916D033091690323E0230F2D3731
:1029C00058F50196A11DB11D2093690380936A03F8
:1029D00090936B03A0936C03B0936D0380916E038F
:1029E00090916F03A0917003B09171030196A11DA6
:1029F000B11D80936E0390936F03A0937003B09307
:102A00007103BF91AF919F918F913F912F910F9043
:102A10000FBE0F901F90189526E8230F0296A11D58
:102A2000B11DD2CF1F920F920FB60F9211242F9388
:102A30003F934F935F936F937F938F939F93AF9346
:102A4000BF93EF93FF938FE795E00E943002FF91D1
:102A5000EF91BF91AF919F918F917F916F915F9116
:102A60004F913F912F910F900FBE0F901F9018958F
:102A70001F920F920FB60F9211242F938F939F9353
:102A8000EF93FF93E0918F05F09190058081E091A5
:102A90009505F091960582FD1BC090818091980567
:102AA0008F5F8F7320919905821741F0E09198050F
:102AB000F0E0E158FA4F958F80939805FF91EF91E0
:102AC0009F918F912F910F900FBE0F901F9018958F
:102AD0008081F4CF1F920F920FB60F9211242F9383
:102AE0003F938F939F93EF93FF938091420186FDD5
:102AF0002FC080915C032091650330E8839FC00163
:102B00001124845A9D4F820F911DFC01808190E019
:102B100090938B0080938A00909389008093880023
:102B2000809165038F5F809365038091650387FFC4
:102B300019C010926503E0915C03F0E0EC5FFE4F7A
:102B400091E0908380915C03892780935C030AC0A5
:102B500080915D0391E0892780935D0380915D03FF
:102B6000882339F2FF91EF919F918F913F912F919F
:102B70000F900FBE0F901F9018951F920F920FB6D7
:102B80000F9211242F933F934F938F939F93EF9323
:102B9000FF9380915C03209165033091790040E8B8
:102BA000849FC0011124845A9D4F820F911DFC0106
:102BB000308380916603823038F08091790090E014
:102BC0009093890080938800809165038F5F809344
:102BD00065038091650387FF0FC010926503E09144
:102BE0005C0391E0E927F0E0EC5FFE4F10828091FA
:102BF0005C03892780935C03FF91EF919F918F91F4
:102C00004F913F912F910F900FBE0F901F901895ED
:102C10001F920F920FB60F9211242F933F934F9351
:102C20005F936F937F938F939F93AF93BF93EF9334
:102C3000FF93E0915C0391E0E927F0E0EC5FFE4F49
:102C40008081882391F180915C03892780935B02C6
:102C500080916F008F7D80936F00789487E696E077
:102C60000E94A30E2091590230915A022817390769
:102C700068F18091420183FF0CC06CE270E080E05B
:102C800090E00E94CC0880916F00806280936F007A
:102C90000CC080916F008E7D80936F000E948F002A
:102CA00081110E94670F10927B03FF91EF91BF91FA
:102CB000AF919F918F917F916F915F914F913F91D4
:102CC0002F910F900FBE0F901F90189560915B028F
:102CD0008091800690918106009751F020E8629FD4
:102CE000B0011124645A7D4F40E850E00E94DE0993
:102CF000E0915B02F0E0EC5FFE4F1082C4CF1F92C8
:102D00000F920FB60F9211242F933F934F935F931F
:102D10006F937F938F939F93AF93BF93CF93EF93D3
:102D2000FF93E0915C03C1E0EC27F0E0EC5FFE4F25
:102D30008081811124C080915C038C2780935B0289
:102D400080916F008D7F80936F00789460915B021B
:102D500080E8689FB0011124645A7D4F40E850E03C
:102D600087E696E00E94D30EE0915B02F0E0EC5F14
:102D7000FE4FC08380916F00826080936F00FF914F
:102D8000EF91CF91BF91AF919F918F917F916F9173
:102D90005F914F913F912F910F900FBE0F901F9019
:102DA0001895EFE7F5E01382128288EE93E0A0E039
:102DB000B0E084839583A683B7832DE431E031832B
:102DC000208325EC30E03587248724EC30E03787FA
:102DD000268720EC30E0318B208B21EC30E0338BE8
:102DE000228B22EC30E0358B248B26EC30E0378BC5
:102DF000268B118E128E138E148EECE1F6E020E5F8
:102E000020831182EEE1F6E0158216821186138688
:102E100042E050E060E070E044875587668777873E
:102E200013A215A614A62FE531E033A722A717A6F3
:102E3000E7E6F6E01382128284839583A683B78344
:102E40008BE691E091838083128E118E1486089513
:102E5000CF93DF93CDB7DEB7C356D1090FB6F89441
:102E6000DEBF0FBECDBF789484B5826084BD84B5CB
:102E7000816084BD85B5826085BD85B5816085BD75
:102E800080916E00816080936E001092810080912D
:102E900081008260809381008091810081608093B5
:102EA0008100809180008160809380008091B100DA
:102EB00084608093B1008091B00081608093B00005
:102EC00080917A00846080937A0080917A00826099
:102ED00080937A0080917A00816080937A0080915B
:102EE0007A00806880937A001092C100E0918F058B
:102EF000F091900582E08083E0918B05F0918C0544
:102F00001082E0918D05F0918E058FEC80831092F8
:102F10009705E0919305F091940586E08083E09118
:102F20009105F0919205808180618083E091910507
:102F3000F0919205808188608083E0919105F09105
:102F40009205808180688083E0919105F0919205DF
:102F500080818F7D808360E08EE00E941E0161E0B1
:102F600082E00E941E018EE791E00E94590F0E94AC
:102F70008A0B811104C081E991E00E94590F0E94DF
:102F80008A0B81110BC089EB91E00E944C0F64EF1A
:102F900071E080E090E00E947401F1CF84E08093C2
:102FA00073038EE490E08C0F9D1F0296A4969FAF52
:102FB0008EAFA4971E0193E0290E311C5CE5E52E2F
:102FC00053E0F52E8E010D5C1F4F40E0C42E40E013
:102FD000D42E8BEB91E00E94590F60961FAE1EAE6F
:102FE0006097A496EEADFFADA49782E111928A9509
:102FF000E9F74AE0BE01625B7F4F809167039091E1
:1030000068030E94B1191A821982F10180E31192BA
:103010008A95E9F760E171E0CE0101960E94381BC4
:10302000BE01625B7F4FCE0101960E94381B66E0B5
:1030300071E0CE0101960E94381B80E192E00E946F
:103040004C0FCE0101960E94590F61E082E00E9470
:10305000D200BB24B394B09266030E947A0F61E061
:10306000809172030E941E0180917203863009F4E0
:1030700069C18E3209F46AC1853009F06BC1B09222
:103080007A038DB581608DBD8CB58C7F8CBD8091B0
:103090006603833008F083C00E947A0F62E273E116
:1030A000CE0101960E947112882331F06FE473E122
:1030B000CE0101960E94711262E273E1CE01019687
:1030C0000E947112882331F06FE473E1CE01019602
:1030D0000E94711247E1BE016F5F7F4FC8010E94DD
:1030E000C513C8010E949B000E948F00882309F429
:1030F00042C060E070E0CB010E94CC0898E0A92EAD
:10310000F8018A2D11928A95E9F780E18BABBB24F7
:10311000B394BFAAB9AE20E2822E8BAE38E4932ED0
:103120009CAE40E150E060E272E087E696E00E94EB
:10313000D30E4AE050E0B80187E696E00E94D30E35
:103140001BAA1CAA8DAA9EAA1FAA18AEB9AE1AAEB7
:10315000ABAE1CAE4AE050E0B80187E696E00E94B4
:10316000D30E48E050E061E372E087E696E00E940B
:10317000D30E0E94670F47E1BE016F5F7F4FC8010A
:103180000E94C513C8010E949B000E948F008823E3
:10319000F1F16CE270E080E090E00E94CC081092C7
:1031A000650381E0809304018093050110927C0007
:1031B00080916603823018F090E890938000F0923E
:1031C0008700E0928600809180008260809380007A
:1031D000E9E1E093810080916603833008F0BDC08F
:1031E00080916F00866080936F0080917C00806684
:1031F00080937C0080917B00856080937B00F5E06C
:10320000F0937A0080917A00806A80937A008AE352
:1032100092E00E94590F8CE3A82EB12C6EE28FE74A
:1032200095E00E94520268EE73E080E090E00E9418
:10323000740181E0A81AB10889F789E791E00E943A
:103240004C0F60E082E00E94D20080916F00897F85
:1032500080936F0010927A0010927B008091660339
:103260008150823008F051C0109266030E94670FAF
:103270000E947A0F43E0BE016F5F7F4FC8010E943A
:10328000C513C8010E949B000E948F008823E9F1AA
:10329000E0918006F0918106412C512C320130974B
:1032A00021F043885488658876885301420198E06C
:1032B000891A9108A108B10864E070E080E090E00C
:1032C0000E94CC088BAA9CAAADAABEAA44E050E0FA
:1032D000B80187E696E00E94D30E68E270E080E0D5
:1032E00090E00E94CC08ECE24E1A51086108710887
:1032F0004BAA5CAA6DAA7EAA44E050E0B80187E61A
:1033000096E00E94D30E0E94670F8AE492E00E942A
:10331000590F809167039091680301969093680319
:10332000809367038BEB91E00E94590FC114D10485
:1033300009F44FCE0E941C02882309F44ACE0E9451
:10334000000043CE82E080937A039BCE93E090937B
:103350007A0397CE10927A0394CE80916F008460A6
:1033600042CFBB274A3031F4992322F4BDE2909535
:1033700081959F4F0C94BD19BB27FB015527AA27A8
:10338000880F991FAA1FA41710F0A41B83955051F2
:10339000B9F7A05DAA3308F0A95DA193009779F76A
:1033A000B111B1931192CB010C94D619DC01FC013F
:1033B000672F71917723E1F7329704C07C916D9369
:1033C00070836291AE17BF07C8F308950E94F71982
:1033D000A59F900DB49F900DA49F800D911D112469
:1033E0000895EE0FFF1F0590F491E02D0994A29F20
:1033F000B001B39FC001A39F700D811D1124911DC9
:10340000B29F700D811D1124911D08950F931F937C
:10341000CF93DF938230910510F482E090E0E09149
:103420008406F091850630E020E0B0E0A0E030971F
:1034300099F42115310509F44AC0281B390B2430B1
:103440003105D8F58A819B816115710589F1FB01F0
:1034500093838283FE0111C04081518102811381D7
:1034600048175907E0F04817590799F4109761F089
:1034700012960C93129713961C933296CF01DF91FC
:10348000CF911F910F9108950093840610938506A4
:10349000F4CF2115310551F04217530738F0A90137
:1034A000DB019A01BD01DF01F801C1CFEF01F9CFC6
:1034B0009093850680938406CDCFFE01E20FF31F23
:1034C000819391932250310939832883D7CF20915A
:1034D000820630918306232B41F4209145013091DF
:1034E0004601309383062093820620914301309158
:1034F00044012115310541F42DB73EB740914701F4
:1035000050914801241B350BE0918206F09183060F
:10351000E217F307A0F42E1B3F0B2817390778F0AA
:10352000AC014E5F5F4F2417350748F04E0F5F1F09
:103530005093830640938206819391939FCFF0E04E
:10354000E0E09CCFCF93DF930097E9F0FC01329746
:1035500013821282A0918406B0918506ED0130E0BD
:1035600020E01097A1F420813181820F931F2091D8
:103570008206309183062817390709F061C0F0935D
:103580008306E0938206DF91CF910895EA01CE177A
:10359000DF07E8F54A815B819E0141155105B1F7CE
:1035A000E901FB83EA8349915991C40FD51FEC17B8
:1035B000FD0761F4808191810296840F951FE901D6
:1035C00099838883828193819B838A83F0E0E0E002
:1035D00012968D919C9113970097B9F52D913C917E
:1035E0001197CD010296820F931F20918206309190
:1035F00083062817390739F6309751F5109285065A
:1036000010928406B0938306A0938206BCCFD38326
:10361000C28340815181840F951FC817D90761F477
:103620004E5F5F4F88819981480F591F51834083B6
:103630008A819B81938382832115310509F0B0CF64
:10364000F0938506E09384069ECFFD01DC01C0CF98
:1036500013821282D7CFFB01DC0104C08D9101904F
:10366000801921F441505040C8F7881B990B0895E8
:10367000FB01DC010D900020E9F7119701900D92FC
:103680000020E1F70895FC018191861721F088233D
:10369000D9F7992708953197CF010895FB01DC01EF
:1036A0004150504048F001900D920020C9F701C0F0
:0E36B0001D9241505040E0F70895F894FFCF6E
:1036BE00FFFFFFFF01012E77617600000000000082
:1036CE007370790000000000000000000000000090
:1036DE0000000000000000000000000000000000DC
:1036EE0000000000000000000000000000000000CC
:1036FE00000060000086068000000000005202B24A
:10370E0001DF019F021002EE0102020000000039EB
:10371E000EB2011F0B4B0F00000000F00ED30EC3B4
:10372E000E9A0EA30E1D0F270F0D0A002F006C6FA1
:10373E006164696E672E2E2E20534420636172647D
:10374E0000416E204572726F7220686173206F6344
:10375E00637572726564207768696C65206D6F752C
:10376E006E74696E67205344002E00232323232397
:10377E00232323232323232323232323232323230B
:10378E0023232323232323232323232323232323FB
:10379E0023232323232323232323232323232323EB
:1037AE0023232323232323232323232323232323DB
:1037BE0023232323232323232323232323232300EE
:1037CE004E65772046696C65204E616D653A200026
:1037DE00524946462020202057415645666D74209A
:1037EE000064617461202020200073746172745231
:1037FE0065636F7264696E67200073746F705265D3
:08380E00636F7264696E6700CC
:00000001FF
